{
  "_format": "hh-sol-artifact-1",
  "contractName": "Transactions",
  "sourceName": "contracts/Transactions.sol",
  "abi": [
    {
      "anonymous": false,
      "inputs": [
        {
          "indexed": false,
          "internalType": "address",
          "name": "from",
          "type": "address"
        },
        {
          "indexed": false,
          "internalType": "address",
          "name": "receiver",
          "type": "address"
        },
        {
          "indexed": false,
          "internalType": "uint256",
          "name": "amount",
          "type": "uint256"
        },
        {
          "indexed": false,
          "internalType": "string",
          "name": "message",
          "type": "string"
        },
        {
          "indexed": false,
          "internalType": "uint256",
          "name": "timestamp",
          "type": "uint256"
        },
        {
          "indexed": false,
          "internalType": "string",
          "name": "keyword",
          "type": "string"
        }
      ],
      "name": "Transfer",
      "type": "event"
    },
    {
      "inputs": [
        {
          "internalType": "address payable",
          "name": "receiver",
          "type": "address"
        },
        {
          "internalType": "uint256",
          "name": "amount",
          "type": "uint256"
        },
        {
          "internalType": "string",
          "name": "message",
          "type": "string"
        },
        {
          "internalType": "string",
          "name": "keyword",
          "type": "string"
        }
      ],
      "name": "addToBlockchain",
      "outputs": [],
      "stateMutability": "payable",
      "type": "function"
    },
    {
      "inputs": [],
      "name": "getAllTransactions",
      "outputs": [
        {
          "components": [
            {
              "internalType": "address",
              "name": "sender",
              "type": "address"
            },
            {
              "internalType": "address",
              "name": "receiver",
              "type": "address"
            },
            {
              "internalType": "uint256",
              "name": "amount",
              "type": "uint256"
            },
            {
              "internalType": "string",
              "name": "message",
              "type": "string"
            },
            {
              "internalType": "uint256",
              "name": "timestamp",
              "type": "uint256"
            },
            {
              "internalType": "string",
              "name": "keyword",
              "type": "string"
            }
          ],
          "internalType": "struct Transactions.transferStruct[]",
          "name": "",
          "type": "tuple[]"
        }
      ],
      "stateMutability": "view",
      "type": "function"
    },
    {
      "inputs": [],
      "name": "getTransactionsCount",
      "outputs": [
        {
          "internalType": "uint256",
          "name": "",
          "type": "uint256"
        }
      ],
      "stateMutability": "view",
      "type": "function"
    }
  ],
  "bytecode": "0x608060405234801561001057600080fd5b50610c0b806100206000396000f3fe6080604052600436106100345760003560e01c806327506f5314610039578063578cb8f914610064578063cc2d7ead1461008f575b600080fd5b34801561004557600080fd5b5061004e6100ab565b60405161005b91906108c4565b60405180910390f35b34801561007057600080fd5b506100796102ee565b60405161008691906108e6565b60405180910390f35b6100a960048036038101906100a491906105ec565b6102f7565b005b60606001805480602002602001604051908101604052809291908181526020016000905b828210156102e557838290600052602060002090600602016040518060c00160405290816000820160009054906101000a900473ffffffffffffffffffffffffffffffffffffffff1673ffffffffffffffffffffffffffffffffffffffff1673ffffffffffffffffffffffffffffffffffffffff1681526020016001820160009054906101000a900473ffffffffffffffffffffffffffffffffffffffff1673ffffffffffffffffffffffffffffffffffffffff1673ffffffffffffffffffffffffffffffffffffffff168152602001600282015481526020016003820180546101b890610a8e565b80601f01602080910402602001604051908101604052809291908181526020018280546101e490610a8e565b80156102315780601f1061020657610100808354040283529160200191610231565b820191906000526020600020905b81548152906001019060200180831161021457829003601f168201915b505050505081526020016004820154815260200160058201805461025490610a8e565b80601f016020809104026020016040519081016040528092919081815260200182805461028090610a8e565b80156102cd5780601f106102a2576101008083540402835291602001916102cd565b820191906000526020600020905b8154815290600101906020018083116102b057829003601f168201915b505050505081525050815260200190600101906100cf565b50505050905090565b60008054905090565b60008081548092919061030990610ac0565b919050555060016040518060c001604052803373ffffffffffffffffffffffffffffffffffffffff1681526020018673ffffffffffffffffffffffffffffffffffffffff16815260200185815260200184815260200142815260200183815250908060018154018082558091505060019003906000526020600020906006020160009091909190915060008201518160000160006101000a81548173ffffffffffffffffffffffffffffffffffffffff021916908373ffffffffffffffffffffffffffffffffffffffff16021790555060208201518160010160006101000a81548173ffffffffffffffffffffffffffffffffffffffff021916908373ffffffffffffffffffffffffffffffffffffffff1602179055506040820151816002015560608201518160030190805190602001906104469291906104b7565b506080820151816004015560a082015181600501908051906020019061046d9291906104b7565b5050507f416cfa4330a4565f45c2fd2dd4826a83a37443aba2ce6f79477c7355afac35fa3385858542866040516104a996959493929190610855565b60405180910390a150505050565b8280546104c390610a8e565b90600052602060002090601f0160209004810192826104e5576000855561052c565b82601f106104fe57805160ff191683800117855561052c565b8280016001018555821561052c579182015b8281111561052b578251825591602001919060010190610510565b5b509050610539919061053d565b5090565b5b8082111561055657600081600090555060010161053e565b5090565b600061056d61056884610932565b610901565b90508281526020810184848401111561058557600080fd5b610590848285610a4c565b509392505050565b6000813590506105a781610ba7565b92915050565b600082601f8301126105be57600080fd5b81356105ce84826020860161055a565b91505092915050565b6000813590506105e681610bbe565b92915050565b6000806000806080858703121561060257600080fd5b600061061087828801610598565b9450506020610621878288016105d7565b935050604085013567ffffffffffffffff81111561063e57600080fd5b61064a878288016105ad565b925050606085013567ffffffffffffffff81111561066757600080fd5b610673878288016105ad565b91505092959194509250565b600061068b83836107a7565b905092915050565b61069c81610a16565b82525050565b6106ab816109c8565b82525050565b6106ba816109c8565b82525050565b60006106cb82610972565b6106d58185610995565b9350836020820285016106e785610962565b8060005b858110156107235784840389528151610704858261067f565b945061070f83610988565b925060208a019950506001810190506106eb565b50829750879550505050505092915050565b60006107408261097d565b61074a81856109a6565b935061075a818560208601610a5b565b61076381610b96565b840191505092915050565b60006107798261097d565b61078381856109b7565b9350610793818560208601610a5b565b61079c81610b96565b840191505092915050565b600060c0830160008301516107bf60008601826106a2565b5060208301516107d260208601826106a2565b5060408301516107e56040860182610837565b50606083015184820360608601526107fd8282610735565b91505060808301516108126080860182610837565b5060a083015184820360a086015261082a8282610735565b9150508091505092915050565b61084081610a0c565b82525050565b61084f81610a0c565b82525050565b600060c08201905061086a60008301896106b1565b6108776020830188610693565b6108846040830187610846565b8181036060830152610896818661076e565b90506108a56080830185610846565b81810360a08301526108b7818461076e565b9050979650505050505050565b600060208201905081810360008301526108de81846106c0565b905092915050565b60006020820190506108fb6000830184610846565b92915050565b6000604051905081810181811067ffffffffffffffff8211171561092857610927610b67565b5b8060405250919050565b600067ffffffffffffffff82111561094d5761094c610b67565b5b601f19601f8301169050602081019050919050565b6000819050602082019050919050565b600081519050919050565b600081519050919050565b6000602082019050919050565b600082825260208201905092915050565b600082825260208201905092915050565b600082825260208201905092915050565b60006109d3826109ec565b9050919050565b60006109e5826109ec565b9050919050565b600073ffffffffffffffffffffffffffffffffffffffff82169050919050565b6000819050919050565b6000610a2182610a28565b9050919050565b6000610a3382610a3a565b9050919050565b6000610a45826109ec565b9050919050565b82818337600083830152505050565b60005b83811015610a79578082015181840152602081019050610a5e565b83811115610a88576000848401525b50505050565b60006002820490506001821680610aa657607f821691505b60208210811415610aba57610ab9610b38565b5b50919050565b6000610acb82610a0c565b91507fffffffffffffffffffffffffffffffffffffffffffffffffffffffffffffffff821415610afe57610afd610b09565b5b600182019050919050565b7f4e487b7100000000000000000000000000000000000000000000000000000000600052601160045260246000fd5b7f4e487b7100000000000000000000000000000000000000000000000000000000600052602260045260246000fd5b7f4e487b7100000000000000000000000000000000000000000000000000000000600052604160045260246000fd5b6000601f19601f8301169050919050565b610bb0816109da565b8114610bbb57600080fd5b50565b610bc781610a0c565b8114610bd257600080fd5b5056fea2646970667358221220de3c9607dff6914462defab819d6bb0e0e2b71e6331d7eac7aba43dbc873801164736f6c63430008000033",
  "linkReferences": {},
  "deployedLinkReferences": {}
}